:10000000F6C305C404C495C602C401C463C6FFC3D5
:10001000FEC3FDC3FCC3FBC3FAC3F9C3F8C3F7C3F4
:10002000F6C3F5C3F4C3F3C3F2C3BCC4C1C4C6C4AE
:10003000CBC4D0C4D5C4DAC4DFC4E4C4E9C4EEC4BC
:10004000ABC4F2C4F7C4713D7E41C3F58041E17A8F
:1000500082413333834152B8844152B88641D7A399
:100060008841713D8A413D0A8B41D7A38C4152B8EA
:100070008E41CDCC904166669241AE4793413D0A98
:10008000954133339741295C9941B81E9B4100004B
:100090009C410AD79D41F628A041E17AA241EC514A
:1000A000A441AE47A541AE47A74114AEA941F628E9
:1000B000AC41F628AE41B81EAF413333B1410AD747
:1000C000B3416666B641E17AB8411F85B9418FC236
:1000D000BB41E17ABE41AE47C141A470C3415C8FD0
:1000E000C44148E1C6410AD7C94152B8CC413D0A92
:1000F000CF41713DD04152B8D2410AD7D54148E1F4
:10010000D841295CDB41D7A3DC41AE47DF415C8F9E
:10011000E2410AD7E5416666E8418FC2E9415C8F5A
:10012000EC410000F041A470F341713DF64114AE82
:10013000F741D7A3FA41EC51FE41C3F50042A47048
:100140000242333303428FC2044252B80642D7A35D
:10015000084233330A4200000B42D7A30C4252B884
:100160000E428FC21042A4701242AE4713420000EA
:1001700015423333174266661942B81E1B423D0AC8
:100180001C4248E11D42333320421F852242295C34
:100190002442EC512542AE47274252B82942F62864
:1001A0002C42B81E2E42B81E2F4233333142CDCCE2
:1001B000334266663642E17A38425C8F39428FC2FA
:1001C0003B42E17A3E42713D4142A47043429A99DA
:1001D000444285EB46420AD7494252B84C427B140E
:1001E0004F42AE47504252B852420AD7554285EB71
:1001F000584266665B42D7A35C42AE475F425C8F63
:100200006242CDCC6542A47068428FC269425C8F65
:100210006C4200007042E17A7342713D764214AE46
:1002200077429A997A42AE477E42E1FA8042A470C0
:100230008242333383428FC2844233B38642D7A390
:10024000884233338A4200008B42F6A88C4252B86F
:100250008E42AEC79042856B92428F4293421F05F9
:1002600095423333974248619942B81E9B421F051D
:100270009C4248E19D42142EA0420080A242295C8B
:10028000A442CD4CA5428F42A74252B8A942F628BB
:10029000AC42B81EAE42D723AF423333B142CDCCCD
:1002A000B3426666B642E17AB8423D8AB94271BD50
:1002B000BB420080BE42713DC142A470C3427B94E8
:1002C000C44285EBC642ECD1C94271BDCC425C0F41
:1002D000CF428F42D04271BDD242ECD1D54285EBA4
:1002E000D8424861DB42F6A8DC42AE47DF423D8A95
:1002F000E242ECD1E542856BE842AEC7E9423D8A75
:10030000EC421F05F042E17AF342713DF64214AE31
:10031000F742B89EFA42AE47FE42E1FA0043337319
:100320000243333303438FC2044333B3064366A609
:10033000084333330A4300000B4366A60C43C3B59E
:100340000E431FC51043856B12431F4513431F0502
:100350001543333317434861194348211B43AE0704
:100360001C4348E11D43A4302043008022439A5996
:100370002443CD4C25438F422743C3B52943F62858
:100380002C43B81E2E4348212F43C33531435CCF45
:10039000334366663643E17A3843CD8C394300C037
:1003A0003B4300803E4300404143337343437B94CF
:1003B0004443F6E846437BD4494371BD4C43EC11BA
:1003C0004F431F45504371BD52437BD45543F6E81C
:1003D000584348615B4366A65C431F455F433D8AC3
:1003E00062435CCF6543146E68431FC56943CD8C7F
:1003F0006C438F027043E17A73430040764314AE3E
:100400007743299C7A43AE477E439AF98043EC7147
:1004100082433333834348C1844333B386431FA5A8
:10042000884333338A4348018B4366A68C43C3B564
:100430008E431FC59043856B92431F459343D7035B
:100440009543333397434861994300209B436606A5
:100450009C4300E09D43A430A0430080A2439A59EE
:10046000A443144EA543D743A7430AB7A9433D2A43
:10047000AC430020AE438F22AF43C335B14314CE0B
:10048000B3436666B643E17AB843858BB943B8BED9
:10049000BB430080BE430040C1433373C3437B94DE
:1004A000C443F6E8C64333D3C94371BDCC43EC1112
:1004B000CF431F45D04371BDD24333D3D5433DEA2B
:1004C000D8438F62DB43AEA7DC431F45DF433D8A41
:1004D000E2435CCFE543146EE84366C6E943858B8F
:1004E000EC438F02F0439A79F3430040F643CDACDE
:1004F000F743719DFA43F648FE433DFA0044EC7120
:100500000244D7330344ECC10444D7B30644C3A523
:100510000844D7330A44A4000B440AA70C4466B627
:100520000E44C3C51044856B12441F451344D703C2
:1005300015448F32174448611944A4201B446606B1
:100540001C4400E01D4400302044A48022443D5A55
:100550002444144E2544D74327440AB729443D2A4E
:100560002C4400202E44EC212F44C335314414CEBA
:1005700033440A6736443D7A3844298C39445CBF99
:100580003B445C7F3E445C3F41448F7243447B94D8
:1005900044449AE9464433D3494471BD4C44EC1178
:1005A0004F441F45504471BD524433D355449AE9DA
:1005B0005844EC615B44AEA75C441F455F443D8AF0
:1005C000624400D06544716D684466C66944298CF4
:1005D0006C44330370443D7A73445C3F7644CDAC45
:1005E0007744CD9C7A4452487E443DFA80443D7223
:1005F000824485338344ECC18444D7B3864471A5D7
:100600008844D7338A44F6008B44B8A68C4466B637
:100610008E44C3C59044856B9244CD449344D70324
:1006200095448F3297449A619944A4209B44B8061C
:100630009C4452E09D445230A0445280A244EC5964
:10064000A444C34DA5448543A744B8B6A944EC29A6
:10065000AC44AE1FAE443D22AF44C335B14466CE78
:10066000B344B866B6443D7AB844298CB9445CBFFB
:10067000BB445C7FBE445C3FC1448F72C3447B94E7
:10068000C44448E9C64433D3C9441FBDCC44EC112B
:10069000CF441F45D0441FBDD24485D3D544ECE997
:1006A000D844EC61DB445CA7DC441F45DF448F8AFF
:1006B000E244AECFE544716DE84466C6E944298C56
:1006C000EC44E102F044EC79F344AE3FF6441FAD54
:1006D000F744CD9CFA44A448FE443DFA0045147208
:1006E0000245AE330345ECC10445AEB306459AA5B9
:1006F0000845D7330A45CD000B45E1A60C453DB66C
:100700000E459AC51045AE6B1245CD441345D7032F
:100710001545B8321745716119457B201B45B80650
:100720001C4552E01D455230204552802245EC596F
:100730002445C34D254585432745B8B62945142A88
:100740002C45D71F2E4514222F45C33531453DCEAC
:100750003345B8663645667A3845298C39455CBFDD
:100760003B455C7F3E455C3F41458F724345A494C9
:10077000444548E9464533D349451FBD4C45EC1136
:100780004F451F45504548BD524585D35545C3E9A2
:100790005845EC615B4585A75C4548455F458F8AB8
:1007A0006245AECF65459A6D684566C66945008C61
:1007B0006C450A037045147A7345AE3F76451FAD0C
:1007C0007745CD9C7A45A4487E453DFA8045147214
:1007D0008245AE338345ECC18445C3B386459AA5B3
:1007E0008845D7338A45E1008B45CDA68C45112439
:1007F0001FBECFE5D1E0DEBFCDBF20E0A0E6B0E078
:1008000001C01D92A236B207E1F7BCD2E9C3F8CB12
:100810008BB38E7F8BBB12BA2FE789EA93E021500E
:1008200080409040E1F700C0000082B3826082BB4C
:100830002FE789EA93E0215080409040E1F700C023
:10084000000082B3806482BB2FE789EA93E02150E5
:1008500080409040E1F700C0000082B3806282BB1C
:100860002FE789EA93E0215080409040E1F700C0F3
:10087000000082B3806182BB2FE789EA93E02150B8
:1008800080409040E1F700C0000082B3886082BBE6
:100890002FE789EA93E0215080409040E1F700C0C3
:1008A000000082B3846082BB2FE789EA93E0215085
:1008B00080409040E1F700C0000082B3816082BBBD
:1008C0002FE789EA93E0215080409040E1F700C093
:1008D00000008BB381608BBB2FE789EA93E0215046
:1008E00080409040E1F700C0000088B3846088BB7E
:1008F0002FE789EA93E0215080409040E1F700C063
:10090000000088B3806888BB2FE789EA93E0215014
:1009100080409040E1F700C0000088B3806488BB4D
:100920002FE789EA93E0215080409040E1F700C032
:10093000000088B3806288BB2FE789EA93E02150EA
:1009400080409040E1F700C0000088B3806188BB20
:100950002FE789EA93E0215080409040E1F700C002
:10096000000088B3886088BB2FEF89E698E12150AA
:1009700080409040E1F700C0000012BA88B3837055
:1009800088BB089590E0FC013197EE30F10508F046
:1009900057C0EB5EFF4F09948EE482BB88B38B7F18
:1009A00088BB08958EE482BB88B3846088BB0895B9
:1009B0008DE382BB88B38B7F88BB08958DE382BBB8
:1009C00088B3846088BB08958FE482BB88B38B7F33
:1009D00088BB089587E482BB88B38B7F88BB08956A
:1009E00087E482BB88B3846088BB08958EE582BBB0
:1009F00088B38B7F88BB08958EE582BB88B3846003
:100A000088BB089587E782BB88B38B7F88BB089536
:100A100087E782BB88B3846088BB08958FE182BB7F
:100A200088B38B7F88BB089588E082BB88B38B7FB7
:100A300088BB089580E482BB88B38B7F88BB089510
:100A400088E482BB88B38B7F88BB0895AF92BF9246
:100A5000CF92DF92EF92FF920F931F93CF93DF938A
:100A6000BC0180E090E0FFD120E030E04AE754E4B0
:100A700092D120E030E04AE754E48DD19B01AC01F3
:100A800060E070E080E89FE386D16B017C01E6EED8
:100A9000F0E0259135914591549179D1882334F432
:100AA0008DE070DF88B3837088BBDEC0EAEDF7E0CD
:100AB0002591359145915491C701B60186D288237D
:100AC00044F08EE05FDF88B3837088BBCDC0145FD5
:100AD00001C011E0C12FD0E0FE01EE0FFF1FEE0FAD
:100AE000FF1FEC0FFD1FEE0FFF1FEE0FFF1FEA5B56
:100AF000FF4F2591359145915491C701B60165D2BB
:100B000088232CF32C96FE01EE0FFF1FEE0FFF1F24
:100B1000EC0FFD1FEE0FFF1FEE0FFF1FEA5BFF4FF5
:100B20002591359145915491C701B60130D1882363
:100B300074F603C01F5F0F5F01C001E0C12FD0E05A
:100B4000FE01EE0FFF1FEE0FFF1FEC0FFD1FEE0F5C
:100B5000FF1FEE0FFF1FEA5BFF4F25913591459177
:100B60005491C701B60131D2882324F3CE010196F6
:100B7000FC01EE0FFF1FEE0FFF1FE80FF91FEE0F36
:100B8000FF1FEE0FFF1FEA5BFF4F25913591459147
:100B90005491C701B601FBD088230CF0CBCF04C021
:100BA0001F5F143011F437C010E0A12EB12CFE01EC
:100BB000EE0FFF1FEE0FFF1FEC0FFD1FEA0DFB1DD9
:100BC000EE0FFF1FEE0FFF1FEA5BFF4F25913591E0
:100BD00045915491C701B601F8D188230CF38FEFEA
:100BE000A81AB80AFE01EE0FFF1FEE0FFF1FEC0F51
:100BF000FD1FEA0DFB1DEE0FFF1FEE0FFF1FEA5B4F
:100C0000FF4F2591359145915491C701B601BFD051
:100C100088230CF0C5CF802FB5DE88B3877088BBE2
:100C2000123099F028F4112341F0113051F019C01D
:100C3000133079F0143089F014C088B3806888BB11
:100C400013C088B3806488BB0FC088B3806288BB40
:100C50000BC088B3806188BB07C088B3886088BB3D
:100C600003C088B3886F88BBDF91CF911F910F912C
:100C7000FF90EF90DF90CF90BF90AF90089580E00D
:100C800090E0A7D19FEF980F9E3F08F481BF8AB3F1
:100C900081608ABB8AB38D7F8ABB8BB382608BBB3A
:100CA0008CEF87BB88B38C7F88BB8FEF81BB88B10B
:100CB000846088B983B7856083BF89B7826089BF44
:100CC0008EB580648EBD8EB582608EBD89B788601A
:100CD00089BF08951F920F920FB60F9211242F9380
:100CE0003F934F935F936F937F938F939F93AF93B4
:100CF000BF93EF93FF937894C99B06C080916000E7
:100D000090916100A3DE04C012BA88B3837088BBDF
:100D1000FF91EF91BF91AF919F918F917F916F91D3
:100D20005F914F913F912F910F900FBE0F901F90A9
:100D300018951F920F920FB60F9211248F939F93C5
:100D40001DBC1CBC08B607FE0DC089B3816089BB01
:100D50008FEF9FEF909361008093600088B7806869
:100D600088BF09C084B595B59093610080936000F9
:100D70008BB38E7F8BBB9F918F910F900FBE0F9087
:100D80001F901895F8947BDF43DD7894FFCFA8D0AF
:100D900008F481E008950CD0DEC0D6D040F0CDD06C
:100DA00030F021F45F3F19F0BFC0511108C1C2C03B
:100DB000E3D098F39923C9F35523B1F3951B550B51
:100DC000BB27AA2762177307840738F09F5F5F4F1E
:100DD000220F331F441FAA1FA9F333D00E2E3AF05F
:100DE000E0E830D091505040E695001CCAF729D079
:100DF000FE2F27D0660F771F881FBB1F26173707C8
:100E00004807AB07B0E809F0BB0B802DBF01FF27F7
:100E100093585F4F2AF09E3F510568F085C0CFC0C0
:100E20005F3FECF3983EDCF3869577956795B79531
:100E3000F7959F5FC9F7880F911D9695879597F94C
:100E40000895E1E0660F771F881FBB1F62177307C5
:100E50008407BA0720F0621B730B840BBA0BEE1FDA
:100E600088F7E0950895E89409C097FB3EF49095C3
:100E70008095709561957F4F8F4F9F4F9923A9F073
:100E8000F92F96E9BB279395F69587957795679502
:100E9000B795F111F8CFFAF4BB0F11F460FF1BC046
:100EA0006F5F7F4F8F4F9F4F16C0882311F096E9D9
:100EB00011C0772321F09EE8872F762F05C0662387
:100EC00071F096E8862F70E060E02AF09A95660F40
:100ED000771F881FDAF7880F9695879597F90895F9
:100EE000990F0008550FAA0BE0E8FEEF161617063B
:100EF000E807F907C0F012161306E407F50798F0A3
:100F0000621B730B840B950B39F40A2661F0232BBB
:100F1000242B252B21F408950A2609F4A140A69537
:100F20008FEF811D811D089597F99F6780E870E01C
:100F300060E008959FEF80EC089500240A9416164F
:100F4000170618060906089500240A9412161306B7
:100F5000140605060895092E0394000C11F4882345
:100F600052F0BB0F40F4BF2B11F460FF04C06F5F61
:100F70007F4F8F4F9F4F089557FD9058440F551F37
:100F800059F05F3F71F04795880F97FB991F61F00B
:100F90009F3F79F087950895121613061406551F82
:100FA000F2CF4695F1DF08C0161617061806991FEE
:100FB000F1CF86957105610508940895E894BB27E3
:100FC00066277727CB0197F908958ADF08F48FEF1A
:100FD0000895E199FECF8EBBE09A99278DB30895CD
:040FE000F894FFCFB3
:00000001FF
